:100000000C942A000C9447000C9447000C94470071
:100010000C9447000C9447000C9447000C94470044
:100020000C9447000C9447000C9447000C94470034
:100030000C9447000C9447000C9447000C94470024
:100040000C94790B0C9447000C9447000C944700D7
:100050000C94470011241FBECFE5D8E0DEBFCDBF12
:1000600011E0A8E6B1E001C01D92A637B107E1F7A3
:1000700011E0A0E6B0E0E0EEF7E202C005900D92DC
:10008000A836B107D9F70E944B120C94EE130C94CA
:100090000000EF92FF920F931F937B018C0120E0F1
:1000A00030E040E05FE40E94490388238CF0C801FF
:1000B000B70120E030E040E05FE40E94C1010E940F
:1000C000A9039B01AC01205030404040504806C07D
:1000D000C801B7010E94A9039B01AC01B901CA0183
:1000E0001F910F91FF90EF900895A0E0B0E0EBE733
:1000F000F0E00C94B713DC012B01FA019C919230D3
:1001000008F439C1EB018881823008F433C194309E
:1001100069F4843009F02FC111969C91119789815F
:10012000981709F428C1A0E6B0E025C1843009F48D
:1001300021C18230A9F4923009F01DC19A01AD01AC
:1001400088E0EA010990AE01E90109929E0181501F
:10015000C1F7E201898111969C918923818308C1AD
:10016000923009F407C112962D903C901397EB0141
:100170008A819B811496AD90BD90CD90DC901797AD
:10018000EC80FD800E811F819101281B390BB90184
:1001900037FF04C066277727621B730B6032710537
:1001A0000CF061C0121613066CF537014801062EDB
:1001B00004C096948794779467940A94D2F721E0C8
:1001C00030E040E050E004C0220F331F441F551FB1
:1001D0006A95D2F721503040404050402E213F21B7
:1001E00040235123211531054105510521F021E01E
:1001F00030E040E050E079018A01E628F72808293C
:1002000019293CC0232BD1F1260E371E350146019A
:10021000062E04C096948794779467940A94D2F734
:1002200021E030E040E050E004C0220F331F441FC3
:10023000551F6A95D2F721503040404050402A2146
:100240003B214C215D21211531054105510521F04E
:1002500021E030E040E050E059016A01A628B728CB
:10026000C828D9280BC0821593052CF01C01AA249C
:10027000BB24650103C0EE24FF24870111969C91E5
:10028000D20111968C91981709F445C0992339F041
:10029000A80197012A193B094C095D0906C0A6016E
:1002A00095012E193F09400B510B57FD08C01182D3
:1002B0003382228224833583468357831DC081E0A5
:1002C00081833382228288279927DC01821B930B4A
:1002D000A40BB50B84839583A683B7830DC0220F2F
:1002E000331F441F551F24833583468357838281E0
:1002F000938101979383828324813581468157813D
:10030000DA01C9010197A109B1098F5F9F4FAF4F72
:10031000BF4328F30BC0918333822282EA0CFB1C7B
:100320000C1D1D1DE482F5820683178383E0808304
:10033000248135814681578157FF1AC0C901AA27F8
:1003400097FDA095BA2F81709070A070B0705695EF
:10035000479537952795822B932BA42BB52B848318
:100360009583A683B7838281938101969383828349
:10037000DF0101C0D201CD01CDB7DEB7E2E10C94BF
:10038000D313A0E2B0E0E7ECF1E00C94C31369836F
:100390007A838B839C832D833E834F835887E9E048
:1003A000EE2EF12CEC0EFD1ECE010196B7010E943F
:1003B0009A058E010F5E1F4FCE010596B8010E946F
:1003C0009A058A8991E089278A8BC701B801AE0115
:1003D000475E5F4F0E9475000E94C504A096E6E04C
:1003E0000C94DF13A0E2B0E0E8EFF1E00C94C3134B
:1003F00069837A838B839C832D833E834F835887C5
:10040000F9E0EF2EF12CEC0EFD1ECE010196B701A6
:100410000E949A058E010F5E1F4FCE010596B8010E
:100420000E949A05C701B801AE01475E5F4F0E9466
:1004300075000E94C504A096E6E00C94DF13A0E2CC
:10044000B0E0E5E2F2E00C94B71369837A838B8322
:100450009C832D833E834F835887CE010196BE0136
:10046000675F7F4F0E949A05CE010596BE016F5EC1
:100470007F4F0E949A059985923088F08989823051
:10048000C8F0943019F4823051F404C0843029F457
:10049000923081F480E690E0C6C0923049F420E0CA
:1004A0009A858A89981321E02A87CE010996BBC0D4
:1004B000823049F420E09A858A89981321E02A8BBA
:1004C000CE014196B0C02D843E844F8458886D88FB
:1004D0007E888F88988CEE24FF248701AA24BB2471
:1004E000650140E050E060E070E0E0E0F0E0C10174
:1004F00081709070892BE9F0E60CF71C081D191D1E
:100500009A01AB012A0D3B1D4C1D5D1D80E090E062
:10051000A0E0B0E0E614F7040805190520F481E036
:1005200090E0A0E0B0E0BA01A901480F591F6A1F8E
:100530007B1FAA0CBB1CCC1CDD1C97FE08C081E0F5
:1005400090E0A0E0B0E0A82AB92ACA2ADB2A3196B6
:10055000E032F10549F0660C771C881C991C569412
:10056000479437942794C3CFFA85EA892B893C892D
:100570008B859C85280F391F2E5F3F4F17C0CA01FE
:1005800081709070892B61F016950795F794E79428
:1005900080E090E0A0E0B0E8E82AF92A0A2B1B2BC3
:1005A00076956795579547952F5F3F4F77FDE7CF36
:1005B0000CC0440F551F661F771F17FD4160EE0CDE
:1005C000FF1C001F111F21503040403090E05907A0
:1005D00090E0690790E4790760F32B8F3C8FDB0193
:1005E000CA018F779070A070B07080349105A1051A
:1005F000B10561F447FD0AC0E114F10401051105DC
:1006000029F0405C5F4F6F4F7F4F40781A8EFE1786
:1006100011F081E08A8F4D8F5E8F6F8F78A383E01A
:10062000898FCE0149960E94C504A096E2E10C9400
:10063000D313A8E1B0E0EFE1F3E00C94C3136983B6
:100640007A838B839C832D833E834F83588789E0F5
:10065000E82EF12CEC0EFD1ECE010196B7010E9492
:100660009A058E010F5E1F4FCE010596B8010E94BC
:100670009A058985823040F08989823028F0C70147
:10068000B8010E94120601C08FEF6896E6E00C9454
:10069000DF13A8E1B0E0EFE4F3E00C94C313698347
:1006A0007A838B839C832D833E834F83588789E095
:1006B000E82EF12CEC0EFD1ECE010196B7010E9432
:1006C0009A058E010F5E1F4FCE010596B8010E945C
:1006D0009A058985823040F08989823028F0C701E7
:1006E000B8010E94120601C08FEF6896E6E00C94F4
:1006F000DF13A8E1B0E0EFE7F3E00C94C3136983E4
:100700007A838B839C832D833E834F83588789E034
:10071000E82EF12CEC0EFD1ECE010196B7010E94D1
:100720009A058E010F5E1F4FCE010596B8010E94FB
:100730009A058985823040F08989823028F0C70186
:10074000B8010E94120601C081E06896E6E00C94B0
:10075000DF13ACE0B0E0EFEAF3E00C94C713698379
:100760007A838B839C83CE010196BE016B5F7F4FA2
:100770000E949A058D81823061F1823050F184307F
:1007800021F48E81882351F12EC02F81388537FDC9
:1007900020C06E812F3131051CF06623F9F023C093
:1007A0008EE190E0821B930B29853A854B855C8511
:1007B00004C056954795379527958A95D2F76623B5
:1007C000B1F050954095309521953F4F4F4F5F4F79
:1007D0000EC020E030E040E050E009C02FEF3FEFD6
:1007E0004FEF5FE704C020E030E040E050E8B9019F
:1007F000CA012C96E2E00C94E313A8E0B0E0E3E039
:10080000F4E00C94BF137B018C0161157105810527
:10081000910519F482E0898360C083E089838EE1C9
:10082000C82ED12CDC82CB82ED82FE820F8318870A
:10083000C801B7010E947604FC013197F7FF3BC065
:10084000222733272E1B3F0B57016801022E04C0BD
:10085000D694C794B794A7940A94D2F740E050E096
:1008600060E070E081E090E0A0E0B0E004C0880FBC
:10087000991FAA1FBB1F2A95D2F70197A109B10999
:100880008E219F21A023B1230097A105B10521F05E
:1008900041E050E060E070E04A295B296C297D2945
:1008A0004D835E836F8378878EE190E08E1B9F0B74
:1008B0009C838B8312C0309781F00E2E04C0EE0C07
:1008C000FF1C001F111F0A94D2F7ED82FE820F83D6
:1008D0001887CE1ADF0ADC82CB821A82CE010196FB
:1008E0000E94C5042896EAE00C94DB13EF92FF9275
:1008F0000F931F937B018C0180E0E81680E0F806DF
:1009000081E0080780E0180788F48FEFE816F1040B
:100910000105110531F028F088E090E0A0E0B0E09A
:1009200017C080E090E0A0E0B0E012C080E0E816E0
:1009300080E0F80680E0080781E0180728F088E1E9
:1009400090E0A0E0B0E004C080E190E0A0E0B0E082
:1009500020E230E040E050E0281B390B4A0B5B0BF3
:1009600004C016950795F794E7948A95D2F7F70196
:10097000E859FF4F8081281B310941095109C901FC
:100980001F910F91FF90EF900895DF92EF92FF92E9
:100990000F931F93FC01E480F58006811781D180BD
:1009A0008081823048F480E090E0A0E1B0E0E82A65
:1009B000F92A0A2B1B2BA5C0843009F49FC0823072
:1009C00021F4EE24FF24870105C0E114F1040105A0
:1009D000110519F4E0E0F0E096C0628173819FEFA9
:1009E000623879070CF05BC022E83FEF261B370B1B
:1009F0002A3131052CF020E030E040E050E02AC000
:100A0000B801A701022E04C07695679557954795C2
:100A10000A94D2F781E090E0A0E0B0E004C0880F33
:100A2000991FAA1FBB1F2A95D2F70197A109B109E7
:100A30008E219F21A023B1230097A105B10521F0AC
:100A400081E090E0A0E0B0E09A01AB01282B392BC7
:100A50004A2B5B2BDA01C9018F779070A070B070C0
:100A600080349105A105B10539F427FF09C0205C48
:100A70003F4F4F4F5F4F04C0215C3F4F4F4F5F4F81
:100A8000E0E0F0E02030A0E03A07A0E04A07A0E470
:100A90005A0710F0E1E0F0E079018A0127C06038E0
:100AA000710564F5FB01E158FF4FD801C7018F774D
:100AB0009070A070B07080349105A105B10539F433
:100AC000E7FE0DC080E490E0A0E0B0E004C08FE35A
:100AD00090E0A0E0B0E0E80EF91E0A1F1B1F17FF10
:100AE00005C016950795F794E794319687E016951B
:100AF0000795F794E7948A95D1F705C0EE24FF2473
:100B00008701EFEFF0E06E2F679566276795902FCE
:100B10009F77D794DD24D7948E2F8695492F462B27
:100B2000582F5D29B701CA011F910F91FF90EF90D7
:100B3000DF900895FC01DB01408151812281622F09
:100B40006F7770E0221F2227221F9381892F880F41
:100B5000822B282F30E0991F9927991F11969C937B
:100B6000119721153105A9F541155105610571054B
:100B700011F482E037C082E89FEF13969C938E9326
:100B800012979A01AB0167E0220F331F441F551FD4
:100B90006A95D1F783E08C930DC0220F331F441F59
:100BA000551F12968D919C911397019713969C93C4
:100BB0008E931297203080E0380780E0480780E469
:100BC000580758F314962D933D934D935C931797C4
:100BD00008952F3F310579F44115510561057105DF
:100BE00019F484E08C93089564FF03C081E08C9332
:100BF00012C01C9210C02F57304013963C932E9376
:100C0000129783E08C9387E0440F551F661F771F70
:100C10008A95D1F7706414964D935D936D937C9390
:100C2000179708951F93DC01FB019C91923008F403
:100C300047C08081823008F443C0943051F411964B
:100C40001C91843099F58181682F70E0611B7109D6
:100C50003FC0843021F0923031F48230B9F181818B
:100C6000882389F12DC011961C9111978230F1F0E3
:100C700081811817D9F412962D913C911397828196
:100C800093818217930794F028173907BCF01496C4
:100C90008D919D910D90BC91A02D2481358146812F
:100CA0005781281739074A075B0718F4112341F0C9
:100CB0000AC082179307A407B50740F4112319F05F
:100CC00061E070E005C06FEF7FEF02C060E070E0B0
:100CD000CB011F910895DF93CF9300D00F92CDB732
:100CE000DEB7ABE2B0E0EBE2F0E0808182608C93B3
:100CF000AAE2B0E0EAE2F0E0808188618C931B8296
:100D00008B8186608B838B818F7C8B838B81877FAC
:100D10008B838B818F7B8B838B8180688B83E0E4DB
:100D2000F0E08B8180838FEC90E09A8389838981C6
:100D30009A819F779A838983E9E2F0E089818083B1
:100D4000E0E4F0E089819A81892F9927808383E00C
:100D500060E040E00E944B0783E061E041E00E94D8
:100D60004B070F900F900F90CF91DF910895DF9375
:100D7000CF930F92CDB7DEB78983EBE2F0E08081AD
:100D8000829586958770882F90E08170907000978B
:100D9000A1F3ECE2F0E0898180830F90CF91DF91A5
:100DA0000895DF93CF9300D0CDB7DEB79A838983C0
:100DB000EBE2F0E080818823DCF7ECE2F0E0808178
:100DC000E981FA8180830F900F90CF91DF91089590
:100DD000DF93CF9300D0CDB7DEB79A83898317C056
:100DE000EBE2F0E08081829586958770882F90E015
:100DF000817090700097A1F3ACE2B0E0E981FA81D4
:100E000080818C9389819A8101969A838983E98173
:100E1000FA818081882321F70F900F90CF91DF9185
:100E20000895DF93CF9300D000D0CDB7DEB79C8379
:100E30008B831A821982EBE2F0E080818823DCF751
:100E4000ECE2F0E080818A838A818D3031F08A8102
:100E50008A3019F08A81882381F48981282F30E033
:100E60008B819C81FC01E20FF31F10820F900F9089
:100E70000F900F90CF91DF9108958981282F30E056
:100E80008B819C81FC01E20FF31F8A818083898121
:100E90008F5F8983D0CFDF93CF9300D000D00F92A4
:100EA000CDB7DEB789836A834B838981843008F0AC
:100EB000CEC08A81883008F0CAC08B81823008F0A9
:100EC000C6C08981282F30E03D832C836C817D81D1
:100ED0006130710509F441C08C819D81823091059A
:100EE00034F42C813D812115310571F0B0C06C8145
:100EF0007D816230710509F459C08C819D818330F8
:100F0000910509F47CC0A3C0AAE3B0E0EAE3F0E0F5
:100F10008081482F8A81282F30E081E090E002C054
:100F2000880F991F2A95E2F7809584238C93AAE372
:100F3000B0E0EAE3F0E08081482F8B81282F30E099
:100F40008A81882F90E0B90102C0660F771F8A95C9
:100F5000E2F7CB01842B8C937AC0A7E3B0E0E7E300
:100F6000F0E08081482F8A81282F30E081E090E0F6
:100F700002C0880F991F2A95E2F7809584238C93ED
:100F8000A7E3B0E0E7E3F0E08081482F8B81282FD2
:100F900030E08A81882F90E0B90102C0660F771F88
:100FA0008A95E2F7CB01842B8C9351C0A4E3B0E087
:100FB000E4E3F0E08081482F8A81282F30E081E04F
:100FC00090E002C0880F991F2A95E2F7809584234C
:100FD0008C93A4E3B0E0E4E3F0E08081482F8B81C0
:100FE000282F30E08A81882F90E0B90102C0660F77
:100FF000771F8A95E2F7CB01842B8C9328C0A1E35D
:10100000B0E0E1E3F0E08081482F8A81282F30E0D2
:1010100081E090E002C0880F991F2A95E2F7809541
:1010200084238C93A1E3B0E0E1E3F0E08081482FDA
:101030008B81282F30E08A81882F90E0B90102C08F
:10104000660F771F8A95E2F7CB01842B8C930F9064
:101050000F900F900F900F90CF91DF910895DF9335
:10106000CF9300D000D00F92CDB7DEB789836A83CB
:101070004B838981843008F0CAC08A81883008F0A7
:10108000C6C08981282F30E03D832C836C817D810F
:101090006130710509F441C08C819D8182309105D8
:1010A00034F42C813D812115310571F0B0C06C8183
:1010B0007D816230710509F459C08C819D81833036
:1010C000910509F47CC0A3C0ABE3B0E0EBE3F0E032
:1010D0008081482F8A81282F30E081E090E002C093
:1010E000880F991F2A95E2F7809584238C93ABE3B0
:1010F000B0E0EBE3F0E08081482F8B81282F30E0D7
:101100008A81882F90E0B90102C0660F771F8A9507
:10111000E2F7CB01842B8C937AC0A8E3B0E0E8E33C
:10112000F0E08081482F8A81282F30E081E090E034
:1011300002C0880F991F2A95E2F7809584238C932B
:10114000A8E3B0E0E8E3F0E08081482F8B81282F0E
:1011500030E08A81882F90E0B90102C0660F771FC6
:101160008A95E2F7CB01842B8C9351C0A5E3B0E0C4
:10117000E5E3F0E08081482F8A81282F30E081E08C
:1011800090E002C0880F991F2A95E2F7809584238A
:101190008C93A5E3B0E0E5E3F0E08081482F8B81FC
:1011A000282F30E08A81882F90E0B90102C0660FB5
:1011B000771F8A95E2F7CB01842B8C9328C0A2E39A
:1011C000B0E0E2E3F0E08081482F8A81282F30E010
:1011D00081E090E002C0880F991F2A95E2F7809580
:1011E00084238C93A2E3B0E0E2E3F0E08081482F17
:1011F0008B81282F30E08A81882F90E0B90102C0CE
:10120000660F771F8A95E2F7CB01842B8C930F90A2
:101210000F900F900F900F90CF91DF910895DF9373
:10122000CF9300D000D0CDB7DEB789836A838981A0
:10123000843008F072C08A81883008F06EC08981DD
:10124000282F30E03C832B838B819C81813091055A
:1012500049F12B813C81223031052CF48B819C811A
:10126000009761F05AC02B813C812230310571F129
:101270008B819C8183309105E9F14FC0ABE3B0E0F5
:10128000EBE3F0E08081482F8A81282F30E081E075
:1012900090E0022E02C0880F991F0A94E2F784277B
:1012A0008C933BC0A8E3B0E0E8E3F0E08081482FF6
:1012B0008A81282F30E081E090E0022E02C0880F62
:1012C000991F0A94E2F784278C9327C0A5E3B0E026
:1012D000E5E3F0E08081482F8A81282F30E081E02B
:1012E00090E0022E02C0880F991F0A94E2F784272B
:1012F0008C9313C0A2E3B0E0E2E3F0E08081482FDA
:101300008A81282F30E081E090E0022E02C0880F11
:10131000991F0A94E2F784278C930F900F900F90F7
:101320000F90CF91DF910895DF93CF9300D000D03D
:1013300000D0CDB7DEB789836A835C834B83898114
:10134000843008F074C08A81883008F070C08981C8
:10135000282F30E03E832D834D815E814130510541
:1013600059F18D819E818230910534F42D813E8129
:101370002115310569F05BC04D815E814230510518
:1013800079F18D819E818330910509F43DC04FC074
:10139000E9E3F0E08081282F30E08A81882F90E017
:1013A000A90102C0559547958A95E2F7CA01817057
:1013B000EB81FC8180833BC0E6E3F0E08081282F55
:1013C00030E08A81882F90E0A90102C055954795A9
:1013D0008A95E2F7CA018170EB81FC81808327C086
:1013E000E3E3F0E08081282F30E08A81882F90E0CD
:1013F000A90102C0559547958A95E2F7CA01817007
:10140000EB81FC81808313C0E0E3F0E08081282F32
:1014100030E08A81882F90E0A90102C05595479558
:101420008A95E2F7CA018170EB81FC818083269660
:101430000FB6F894DEBF0FBECDBFCF91DF910895F8
:10144000DF93CF93CDB7DEB7A6E2B0E0E6E2F0E0FF
:101450008081887F8C93A6E2B0E0E6E2F0E08081B4
:1014600086608C93A7E2B0E0E7E2F0E080818F73C2
:101470008C93A7E2B0E0E7E2F0E0808180648C9397
:10148000A7E2B0E0E7E2F0E0808180628C93A7E21F
:10149000B0E0E7E2F0E08081807E8C93A7E2B0E0EC
:1014A000E7E2F0E080818C93A6E2B0E0E6E2F0E0D3
:1014B0008081877F8C93A6E2B0E0E6E2F0E0808155
:1014C0008F7D8C93A6E2B0E0E6E2F0E08081806858
:1014D0008C93CF91DF910895DF93CF930F92CDB787
:1014E000DEB789838981803278F4A7E2B0E0E7E251
:1014F000F0E08081807E8C93A7E2B0E0E7E2F0E04C
:1015000090818981892B8C930F90CF91DF910895E1
:10151000DF93CF93CDB7DEB7A6E2B0E0E6E2F0E02E
:10152000808180648C93CF91DF910895DF93CF9376
:101530000F92CDB7DEB789838981883040F5A6E266
:10154000B0E0E6E2F0E080818F7D8C93A0E5B0E032
:10155000E0E5F0E080818F718C93A0E5B0E0E0E5FC
:10156000F0E08081282F8981882F90E0880F991FD3
:1015700082959295907F9827807F9827822B8C93D5
:10158000A6E2B0E0E6E2F0E0808180628C930F900A
:10159000CF91DF910895DF93CF93CDB7DEB7A6E269
:1015A000B0E0E6E2F0E080818F7D8C93CF91DF9117
:1015B0000895DF93CF9300D0CDB7DEB79A838983A8
:1015C000E4E2F0E080818295869586958370882F8D
:1015D00090E0E981FA8191838083E981FA81208119
:1015E0003181E5E2F0E08081882F90E0880F991F3B
:1015F000880F991F822B932BE981FA819183808335
:101600000F900F90CF91DF910895DF93CF9300D08B
:10161000CDB7DEB79A838983E5E2F0E08081E98186
:10162000FA8180830F900F90CF91DF910895DF931F
:10163000CF9300D0CDB7DEB79A838983E6E2F0E09E
:10164000808182958F70882F90E0817090700097D4
:10165000A9F3E4E2F0E08081829586958695837017
:10166000882F90E0E981FA8191838083E981FA8172
:1016700020813181E5E2F0E08081882F90E0880FC1
:10168000991F880F991F822B932BE981FA819183EF
:101690008083A6E2B0E0E6E2F0E0808180618C9396
:1016A0000F900F90CF91DF910895DF93CF9300D0EB
:1016B000CDB7DEB79A83898389819A81009731F00B
:1016C00089819A8190936901809368010F900F90AE
:1016D000CF91DF910895DF93CF93CDB7DEB7A6E228
:1016E000B0E0E6E2F0E0808188608C93CF91DF91FA
:1016F00008951F920F920FB60F9211242F933F93CC
:101700004F935F936F937F938F939F93AF93BF9309
:10171000EF93FF93DF93CF93CDB7DEB7809168014E
:1017200090916901009729F0E0916801F0916901B9
:101730000995CF91DF91FF91EF91BF91AF919F916B
:101740008F917F916F915F914F913F912F910F906A
:101750000FBE0F901F901895DF93CF93CDB7DEB7D4
:10176000E9970FB6F894DEBF0FBECDBF89AF81E019
:1017700062E040E00E942F0881E063E040E00E94C8
:101780002F0889AD982F991F9927991F82E067E04C
:10179000492F0E942F0889AD829586958695837082
:1017A000982F917082E066E0492F0E942F0889AD42
:1017B000829586958770982F917082E065E0492F19
:1017C0000E942F0889AD82958F70982F917082E0CA
:1017D00064E0492F0E942F0881E063E041E00E940D
:1017E0002F0880E090E0A0E8BFE38DAB9EABAFABED
:1017F000B8AF6DA97EA98FA998AD20E030E04AE787
:1018000055E40E941F02DC01CB0189AB9AABABAB64
:10181000BCAB69A97AA98BA99CA920E030E040E87B
:101820005FE30E94790388232CF481E090E098AB79
:101830008FA73FC069A97AA98BA99CA920E03FEF97
:101840004FE757E40E94190318164CF56DA97EA9BD
:101850008FA998AD20E030E040E251E40E941F02E1
:10186000DC01CB01BC01CD010E944900DC01CB01B0
:1018700098AB8FA70FC080E991E09EA78DA78DA59B
:101880009EA50197F1F79EA78DA78FA598A901970F
:1018900098AB8FA78FA598A9009769F714C069A97D
:1018A0007AA98BA99CA90E944900DC01CB0198ABC5
:1018B0008FA78FA598A99CA78BA78BA59CA50197FF
:1018C000F1F79CA78BA781E063E040E00E942F081E
:1018D00080E090E0A0E0B0E48FA398A7A9A7BAA702
:1018E0006FA178A589A59AA520E030E04AE755E4E4
:1018F0000E941F02DC01CB018BA39CA3ADA3BEA35E
:101900006BA17CA18DA19EA120E030E040E85FE3C7
:101910000E94790388232CF481E090E09AA389A3A4
:101920003FC06BA17CA18DA19EA120E03FEF4FE7BE
:1019300057E40E94190318164CF56FA178A589A5E4
:101940009AA520E030E040E251E40E941F02DC0151
:10195000CB01BC01CD010E944900DC01CB019AA35F
:1019600089A30FC080E991E098A38F8F8F8D98A1F4
:101970000197F1F798A38F8F89A19AA101979AA354
:1019800089A389A19AA1009769F714C06BA17CA1D2
:101990008DA19EA10E944900DC01CB019AA389A3DD
:1019A00089A19AA19E8F8D8F8D8D9E8D0197F1F7C4
:1019B0009E8F8D8F89AD869586958695982F91708F
:1019C00082E067E0492F0E942F0889AD86958695B1
:1019D000982F917082E066E0492F0E942F0889AD10
:1019E0008695982F917082E065E0492F0E942F081C
:1019F00089AD982F917082E064E0492F0E942F08F2
:101A000081E063E041E00E942F0880E090E0A0E8E0
:101A1000BFE3898F9A8FAB8FBC8F698D7A8D8B8D49
:101A20009C8D20E030E04AE755E40E941F02DC0173
:101A3000CB018D8B9E8BAF8BB88F6D897E898F8903
:101A4000988D20E030E040E85FE30E94790388232E
:101A50002CF481E090E09C8B8B8B3FC06D897E895C
:101A60008F89988D20E03FEF4FE757E40E941903DC
:101A700018164CF5698D7A8D8B8D9C8D20E030E0A9
:101A800040E251E40E941F02DC01CB01BC01CD0108
:101A90000E944900DC01CB019C8B8B8B0FC080E93D
:101AA00091E09A8B898B89899A890197F1F79A8BB2
:101AB000898B8B899C8901979C8B8B8B8B899C89CB
:101AC000009769F714C06D897E898F89988D0E946F
:101AD0004900DC01CB019C8B8B8B8B899C89988B7B
:101AE0008F878F8598890197F1F7988B8F8781E091
:101AF00063E040E00E942F0880E090E0A0E0B0E4C6
:101B00008B879C87AD87BE876B857C858D859E8501
:101B100020E030E04AE755E40E941F02DC01CB01DF
:101B20008F839887A987BA876F81788589859A85F9
:101B300020E030E040E85FE30E94790388232CF442
:101B400081E090E09E838D833FC06F817885898599
:101B50009A8520E03FEF4FE757E40E9419031816DB
:101B60004CF56B857C858D859E8520E030E040E2DC
:101B700051E40E941F02DC01CB01BC01CD010E9497
:101B80004900DC01CB019E838D830FC080E991E089
:101B90009C838B838B819C810197F1F79C838B8342
:101BA0008D819E8101979E838D838D819E8100977B
:101BB00069F714C06F81788589859A850E944900EC
:101BC000DC01CB019E838D838D819E819A838983E5
:101BD00089819A810197F1F79A838983E9960FB6F3
:101BE000F894DEBF0FBECDBFCF91DF910895DF9394
:101BF000CF93CDB7DEB76C970FB6F894DEBF0FBEAC
:101C0000CDBF81E061E041E00E944B0781E062E0EE
:101C100041E00E944B0781E063E041E00E944B07F6
:101C200082E067E041E00E944B0782E066E041E02D
:101C30000E944B0782E065E041E00E944B0782E092
:101C400064E041E00E944B0782E067E040E00E94D0
:101C50002F0882E066E040E00E942F0882E065E005
:101C600041E00E942F0882E064E040E00E942F08DB
:101C700081E063E041E00E942F0880E090E0A0E86E
:101C8000BFE3898F9A8FAB8FBC8F698D7A8D8B8DD7
:101C90009C8D20E030E04AE755E40E941F02DC0101
:101CA000CB018D8B9E8BAF8BB88F6D897E898F8991
:101CB000988D20E030E040E85FE30E9479038823BC
:101CC0002CF481E090E09C8B8B8B3FC06D897E89EA
:101CD0008F89988D20E03FEF4FE757E40E9419036A
:101CE00018164CF5698D7A8D8B8D9C8D20E030E037
:101CF00040E251E40E941F02DC01CB01BC01CD0196
:101D00000E944900DC01CB019C8B8B8B0FC080E9CA
:101D100091E09A8B898B89899A890197F1F79A8B3F
:101D2000898B8B899C8901979C8B8B8B8B899C8958
:101D3000009769F714C06D897E898F89988D0E94FC
:101D40004900DC01CB019C8B8B8B8B899C89988B08
:101D50008F878F8598890197F1F7988B8F8781E01E
:101D600063E040E00E942F0880E090E0A0E0B0E453
:101D70008B879C87AD87BE876B857C858D859E858F
:101D800020E030E04AE755E40E941F02DC01CB016D
:101D90008F839887A987BA876F81788589859A8587
:101DA00020E030E040E85FE30E94790388232CF4D0
:101DB00081E090E09E838D833FC06F817885898527
:101DC0009A8520E03FEF4FE757E40E941903181669
:101DD0004CF56B857C858D859E8520E030E040E26A
:101DE00051E40E941F02DC01CB01BC01CD010E9425
:101DF0004900DC01CB019E838D830FC080E991E017
:101E00009C838B838B819C810197F1F79C838B83CF
:101E10008D819E8101979E838D838D819E81009708
:101E200069F714C06F81788589859A850E94490079
:101E3000DC01CB019E838D838D819E819A83898372
:101E400089819A810197F1F79A83898381E061E022
:101E500040E00E942F0888E20E94AC0B81E061E024
:101E600040E00E942F088FE00E94AC0B81E061E00F
:101E700040E00E942F0881E00E94AC0B81E061E00D
:101E800040E00E942F0886E00E94AC0B6C960FB6D3
:101E9000F894DEBF0FBECDBFCF91DF910895DF93E1
:101EA000CF930F92CDB7DEB7898381E061E041E047
:101EB0000E942F0889810E94AC0B0F90CF91DF9177
:101EC0000895DF93CF930F92CDB7DEB7898381E07A
:101ED00061E040E00E942F0889810E94AC0B0F90C6
:101EE000CF91DF910895DF93CF9300D0CDB7DEB7C8
:101EF0009A83898310C081E061E041E00E942F084D
:101F0000E981FA81208189819A8101969A83898366
:101F1000822F0E94AC0BE981FA818081882359F7D6
:101F20000F900F90CF91DF910895DF93CF93CDB7AE
:101F3000DEB781E061E040E00E942F0881E00E946E
:101F4000AC0B80E80E94610FCF91DF910895DF9381
:101F5000CF93CDB7DEB788E10E94610FCF91DF91BB
:101F60000895DF93CF93CDB7DEB78CE10E94610F68
:101F7000CF91DF910895DF93CF9300D000D00F92DF
:101F8000CDB7DEB79B838A836C834D838C81882F8A
:101F900090E00896880F991F880F991F880F991F46
:101FA0000E94610F19820EC08981282F30E08A813A
:101FB0009B81FC01E20FF31F80810E944F0F8981FA
:101FC0008F5F89838981282F30E08D81882F90E071
:101FD000880F991F880F991F880F991F2817390795
:101FE0001CF30F900F900F900F900F90CF91DF91F7
:101FF0000895DF93CF930F92CDB7DEB789838981A0
:10200000882F90E04096880F991F880F991F880F9E
:10201000991F0E94610F0F90CF91DF910895DF9378
:10202000CF930F92CDB7DEB7898389810E944F0F7E
:102030000F90CF91DF910895DF93CF93CDB7DEB7A7
:102040002F970FB6F894DEBF0FBECDBF9987888754
:102050002DB73EB73F872E878DB79EB79B878A8760
:10206000888599859D838C831B82888599850097B7
:1020700089F480E30E940F1069C08C819D812AE061
:1020800030E0B9010E94A413CB019D838C838B8126
:102090008F5F8B838C819D81009779F78B81882F4F
:1020A00090E02DB73EB7281B390B0FB6F8943EBF12
:1020B0000FBE2DBF8DB79EB701969D878C878C85EF
:1020C0009D8500969D878C872C853D853F832E833B
:1020D000888599859D838C838B818A8320C08A81A2
:1020E000882F90E0FC0131978C819D812AE030E0BF
:1020F000B9010E94A413282F205D8E819F81E80FD3
:10210000F91F20838C819D812AE030E0B9010E9473
:10211000A413CB019D838C838A8181508A838A8119
:102120008823E9F619820EC08981282F30E08E813C
:102130009F81FC01E20FF31F80810E940F108981B3
:102140008F5F898399818B81981770F38A859B852E
:102150000FB6F8949EBF0FBE8DBF2E853F850FB67C
:10216000F8943EBF0FBE2DBF2F960FB6F894DEBF7A
:102170000FBECDBFCF91DF910895DF93CF93CDB741
:10218000DEB72C970FB6F894DEBF0FBECDBF6987C0
:102190007A878B879C8769857A858B859C850E9449
:1021A0004900DC01CB018D839E83AF83B8878D818D
:1021B0009E810E941C108EE20E940F106D817E8114
:1021C0008F8198850E94FD039B01AC0169857A850A
:1021D0008B859C850E94C101DC01CB01BC01CD0136
:1021E00020E030E04AE754E40E941F02DC01CB010A
:1021F000BC01CD010E944900DC01CB0189839A8397
:10220000AB83BC8389819A810E941C102C960FB6E7
:10221000F894DEBF0FBECDBFCF91DF910895DF935D
:10222000CF9300D0CDB7DEB789836A8389818230AE
:1022300090F48A81813178F48981882329F48A8114
:1022400080580E94610F07C08981813021F48A8102
:1022500080540E94610F0F900F90CF91DF910895ED
:10226000DF93CF93CDB7DEB70E94200A0E94880A81
:102270008AE691E00E94170BCF91DF910895DF93DA
:10228000CF930F92CDB7DEB7898389810E946C0A04
:102290000E94880A8AE691E00E94170B80916A01E9
:1022A00090916B01CC01A0E0B0E024EF31E040E080
:1022B00050E0BC01CD010E947113DC01CB01072E5F
:1022C0007AE0B695A795979587957A95D1F7702D71
:1022D00090936B0180936A0180916A0190916B01E8
:1022E00024E630E0B9010E949013CB0190936B017A
:1022F00080936A0180916A0190916B010F90CF9158
:10230000DF910895DF93CF9300D00F92CDB7DEB762
:102310009A838983E981FA81808191818430910552
:1023200039F589819A81FC013296808191818430CE
:102330009105F1F489819A81FC0134968081918123
:1023400082309105A9F489819A81FC0136968081B9
:1023500091818230910561F489819A81FC013896DE
:10236000808191818430910519F481E38B838CC045
:10237000E981FA81808191818230910539F58981E5
:102380009A81FC0132968081918184309105F1F42B
:1023900089819A81FC0134968081918182309105F6
:1023A000A9F489819A81FC013696808191818230DD
:1023B000910561F489819A81FC013896808191812F
:1023C0008230910519F482E38B835EC0E981FA8142
:1023D000808191818430910539F589819A81FC0150
:1023E00032968081918182309105F1F489819A81C0
:1023F000FC0134968081918182309105A9F4898114
:102400009A81FC013696808191818230910561F438
:1024100089819A81FC013896808191818230910571
:1024200019F483E38B8330C0E981FA818081918143
:102430008230910539F589819A81FC01329680813B
:10244000918184309105F1F489819A81FC0134965F
:102450008081918182309105A9F489819A81FC0162
:102460003696808191818230910561F489819A81CB
:10247000FC013896808191818430910519F484E3C0
:102480008B8302C085E38B838B810F900F900F901D
:10249000CF91DF910895DF93CF93CDB7DEB76D97DE
:1024A0000FB6F894DEBF0FBECDBF0E94F70D0E949D
:1024B0006B0680E090E0AAE7B4E4898F9A8FAB8F37
:1024C000BC8F698D7A8D8B8D9C8D20E030E04AE742
:1024D00055E40E941F02DC01CB018D8B9E8BAF8BDC
:1024E000B88F6D897E898F89988D20E030E040E833
:1024F0005FE30E94790388232CF481E090E09C8BB9
:102500008B8B3FC06D897E898F89988D20E03FEF4E
:102510004FE757E40E94190318164CF5698D7A8D20
:102520008B8D9C8D20E030E040E251E40E941F0240
:10253000DC01CB01BC01CD010E944900DC01CB01D3
:102540009C8B8B8B0FC080E991E09A8B898B89895A
:102550009A890197F1F79A8B898B8B899C890197CE
:102560009C8B8B8B8B899C89009769F714C06D8934
:102570007E898F89988D0E944900DC01CB019C8B5C
:102580008B8B8B899C89988B8F878F8598890197F6
:10259000F1F7988B8F870E94301180E00E943F11E5
:1025A00090936D0180936C0181E00E943F119093A4
:1025B0006F0180936E0182E00E943F119093710140
:1025C0008093700183E00E943F1190937301809388
:1025D000720184E00E943F11909375018093740111
:1025E0008CE691E00E9482118D8F8D8D0E944F0F9D
:1025F0008D8D0E94B7068D8D0E940F1080E090E0B7
:10260000AAE7B4E48B879C87AD87BE876B857C8502
:102610008D859E8520E030E04AE755E40E941F0248
:10262000DC01CB018F839887A987BA876F81788572
:1026300089859A8520E030E040E85FE30E947903D5
:1026400088232CF481E090E09E838D833FC06F81CE
:10265000788589859A8520E03FEF4FE757E40E940F
:10266000190318164CF56B857C858D859E8520E0B9
:1026700030E040E251E40E941F02DC01CB01BC01CA
:10268000CD010E944900DC01CB019E838D830FC0E8
:1026900080E991E09C838B838B819C810197F1F78A
:1026A0009C838B838D819E8101979E838D838D81F9
:1026B0009E81009769F771CF6F81788589859A85AA
:1026C0000E944900DC01CB019E838D838D819E8118
:1026D0009A83898389819A810197F1F79A83898303
:1026E0005CCF629FD001739FF001829FE00DF11DCE
:1026F000649FE00DF11D929FF00D839FF00D749F7C
:10270000F00D659FF00D9927729FB00DE11DF91F27
:10271000639FB00DE11DF91FBD01CF011124089584
:10272000AA1BBB1B51E107C0AA1FBB1FA617B707F7
:1027300010F0A61BB70B881F991F5A95A9F7809513
:102740009095BC01CD01089597FB092E07260AD06C
:1027500077FD04D0E5DF06D000201AF4709561956E
:102760007F4F0895F6F7909581959F4F08952F928A
:102770003F924F925F926F927F928F929F92AF9211
:10278000BF92CF92DF92EF92FF920F931F93CF935E
:10279000DF93CDB7DEB7CA1BDB0B0FB6F894DEBFF5
:1027A0000FBECDBF09942A88398848885F846E841B
:1027B0007D848C849B84AA84B984C884DF80EE8065
:1027C000FD800C811B81AA81B981CE0FD11D0FB66E
:1027D000F894DEBF0FBECDBFED010895F894FFCF92
:1027E00000000000000000000001020203030303D8
:1027F0000404040404040404050505050505050591
:102800000505050505050505060606060606060670
:102810000606060606060606060606060606060658
:102820000606060606060606070707070707070740
:102830000707070707070707070707070707070728
:102840000707070707070707070707070707070718
:102850000707070707070707070707070707070708
:1028600007070707070707070808080808080808F0
:1028700008080808080808080808080808080808D8
:1028800008080808080808080808080808080808C8
:1028900008080808080808080808080808080808B8
:1028A00008080808080808080808080808080808A8
:1028B0000808080808080808080808080808080898
:1028C0000808080808080808080808080808080888
:1028D0000808080808080808080808080808080878
:0828E0000808080808080808B0
:00000001FF
